{
  "_format": "hh-sol-artifact-1",
  "contractName": "WavePortal",
  "sourceName": "contracts/WavePortal.sol",
  "abi": [
    {
      "inputs": [],
      "stateMutability": "nonpayable",
      "type": "constructor"
    },
    {
      "inputs": [],
      "name": "getTotalWaves",
      "outputs": [
        {
          "internalType": "uint256",
          "name": "",
          "type": "uint256"
        }
      ],
      "stateMutability": "view",
      "type": "function"
    },
    {
      "inputs": [],
      "name": "wave",
      "outputs": [],
      "stateMutability": "nonpayable",
      "type": "function"
    },
    {
      "inputs": [
        {
          "internalType": "uint256",
          "name": "",
          "type": "uint256"
        }
      ],
      "name": "wavers",
      "outputs": [
        {
          "internalType": "address",
          "name": "",
          "type": "address"
        }
      ],
      "stateMutability": "view",
      "type": "function"
    }
  ],
  "bytecode": "0x608060405234801561001057600080fd5b5061003c60405180606001604052806025815260200161097d6025913961004160201b6102ac1760201c565b6101c4565b6100dd816040516024016100559190610142565b6040516020818303038152906040527f41304fac000000000000000000000000000000000000000000000000000000007bffffffffffffffffffffffffffffffffffffffffffffffffffffffff19166020820180517bffffffffffffffffffffffffffffffffffffffffffffffffffffffff83818316178352505050506100e060201b60201c565b50565b60008151905060006a636f6e736f6c652e6c6f679050602083016000808483855afa5050505050565b600061011482610164565b61011e818561016f565b935061012e818560208601610180565b610137816101b3565b840191505092915050565b6000602082019050818103600083015261015c8184610109565b905092915050565b600081519050919050565b600082825260208201905092915050565b60005b8381101561019e578082015181840152602081019050610183565b838111156101ad576000848401525b50505050565b6000601f19601f8301169050919050565b6107aa806101d36000396000f3fe608060405234801561001057600080fd5b50600436106100415760003560e01c80633ca736bd146100465780636fe15b44146100765780639a2cdc0814610080575b600080fd5b610060600480360381019061005b91906104bb565b61009e565b60405161006d919061053b565b60405180910390f35b61007e6100dd565b005b610088610261565b60405161009591906105d8565b60405180910390f35b600181815481106100ae57600080fd5b906000526020600020016000915054906101000a900473ffffffffffffffffffffffffffffffffffffffff1681565b60016000808282546100ef919061060f565b925050819055506101356040518060400160405280600d81526020017f257320686173207761766564210000000000000000000000000000000000000081525033610345565b6001339080600181540180825580915050600190039060005260206000200160009091909190916101000a81548173ffffffffffffffffffffffffffffffffffffffff021916908373ffffffffffffffffffffffffffffffffffffffff16021790555060005b60018054905081101561025e5761024b6040518060400160405280600981526020017f77617665723a20257300000000000000000000000000000000000000000000008152506001838154811061021b577f4e487b7100000000000000000000000000000000000000000000000000000000600052603260045260246000fd5b9060005260206000200160009054906101000a900473ffffffffffffffffffffffffffffffffffffffff16610345565b8080610256906106d4565b91505061019b565b50565b60006102a46040518060400160405280601781526020017f5765206861766520256420746f74616c207761766573210000000000000000008152506000546103e1565b600054905090565b610342816040516024016102c09190610556565b6040516020818303038152906040527f41304fac000000000000000000000000000000000000000000000000000000007bffffffffffffffffffffffffffffffffffffffffffffffffffffffff19166020820180517bffffffffffffffffffffffffffffffffffffffffffffffffffffffff838183161783525050505061047d565b50565b6103dd828260405160240161035b929190610578565b6040516020818303038152906040527f319af333000000000000000000000000000000000000000000000000000000007bffffffffffffffffffffffffffffffffffffffffffffffffffffffff19166020820180517bffffffffffffffffffffffffffffffffffffffffffffffffffffffff838183161783525050505061047d565b5050565b61047982826040516024016103f79291906105a8565b6040516020818303038152906040527f9710a9d0000000000000000000000000000000000000000000000000000000007bffffffffffffffffffffffffffffffffffffffffffffffffffffffff19166020820180517bffffffffffffffffffffffffffffffffffffffffffffffffffffffff838183161783525050505061047d565b5050565b60008151905060006a636f6e736f6c652e6c6f679050602083016000808483855afa5050505050565b6000813590506104b58161075d565b92915050565b6000602082840312156104cd57600080fd5b60006104db848285016104a6565b91505092915050565b6104ed81610665565b82525050565b60006104fe826105f3565b61050881856105fe565b93506105188185602086016106a1565b6105218161074c565b840191505092915050565b61053581610697565b82525050565b600060208201905061055060008301846104e4565b92915050565b6000602082019050818103600083015261057081846104f3565b905092915050565b6000604082019050818103600083015261059281856104f3565b90506105a160208301846104e4565b9392505050565b600060408201905081810360008301526105c281856104f3565b90506105d1602083018461052c565b9392505050565b60006020820190506105ed600083018461052c565b92915050565b600081519050919050565b600082825260208201905092915050565b600061061a82610697565b915061062583610697565b9250827fffffffffffffffffffffffffffffffffffffffffffffffffffffffffffffffff0382111561065a5761065961071d565b5b828201905092915050565b600061067082610677565b9050919050565b600073ffffffffffffffffffffffffffffffffffffffff82169050919050565b6000819050919050565b60005b838110156106bf5780820151818401526020810190506106a4565b838111156106ce576000848401525b50505050565b60006106df82610697565b91507fffffffffffffffffffffffffffffffffffffffffffffffffffffffffffffffff8214156107125761071161071d565b5b600182019050919050565b7f4e487b7100000000000000000000000000000000000000000000000000000000600052601160045260246000fd5b6000601f19601f8301169050919050565b61076681610697565b811461077157600080fd5b5056fea26469706673582212200217bc1540278473db7b5d83a59f3a7dc32b556646f740d2738c14d32b5204a464736f6c63430008000033596f20796f2c204920616d206120636f6e747261637420616e64204920616d20736d617274",
  "linkReferences": {},
  "deployedLinkReferences": {}
}